:1000000009C021C020C069C01EC01DC0A3C056C009
:100010001AC0AFC011241FBECFE9CDBF10E0A0E6CB
:10002000B0E0ECEBF2E002C005900D92A236B10711
:10003000D9F720E0A2E6B0E001C01D92A636B207D3
:10004000E1F7ABD039C1DCCF8FE087BB88BB089527
:1000500085302CF184E040E050E098B3907F98BB6D
:1000600098B32091600030E0042E02C035952795AA
:100070000A94E2F72F703327922B98BB2FEF36E7C5
:1000800091E0215030409040E1F700C000004F5F08
:100090005F4F841714F78FE080936000089587FF07
:1000A000DACFF9CF89B78A6089BF089589B78A60A6
:1000B00089BF089589B7857F89BF08951F920F92E0
:1000C0000FB60F9211248F9388B3807F88BB8F91D6
:1000D0000F900FBE0F901F9018951F920F920FB6A2
:1000E0000F9211248F9388B38F6088BB8091610039
:1000F0008130C9F08091620089BD81508093620097
:10010000809162008F3F21F080916200811105C0D3
:10011000809161008095809361008F910F900FBE58
:100120000F901F9018958091620089BD8F5F80931A
:100130006200E6CF83E08FBD83BF86E986BF84E09F
:1001400089BF089582E487B98EEE86B983E083B9CA
:10015000789408951F920F920FB60F9211248F93E7
:1001600081E0809365008F910F900FBE0F901F90DC
:1001700018951F920F920FB60F9211248F939F9391
:1001800084B195B190936400809363009F918F91A7
:100190000F900FBE0F901F9018958FE087BB88BB04
:1001A00083E08FBD83BF96E996BF94E099BF92E448
:1001B00097B99EEE96B983B9789489B78A6089BF5A
:1001C00000E010E0C1E1D0E080916500882309F4EF
:1001D0004CC010926500409163005091640060E053
:1001E00070E0DB01CA01880F991FAA1FBB1F840F93
:1001F000951FA61FB71F880F991FAA1FBB1F880F27
:10020000991FAA1FBB1F841B950BA60BB70BAC0134
:10021000BD01440F551F661F771F440F551F661FF2
:10022000771F480F591F6A1F7B1FDB01CA01880F08
:10023000991FAA1FBB1F880F991FAA1FBB1F840FDE
:10024000951FA61FB71F880F991FAA1FBB1F880FD6
:10025000991FAA1FBB1F0AE0B695A795979587958A
:100260000A95D1F7BE0114D08B0189B7011511058C
:1002700051F48A6089BF809165008111AACF89B746
:1002800001151105B1F3857F89BF802FE1DE9CCF79
:10029000AA1BBB1B51E107C0AA1FBB1FA617B707AC
:1002A00010F0A61BB70B881F991F5A95A9F78095C8
:0C02B0009095BC01CD010895F894FFCF9B
:0202BC000F0130
:00000001FF
